{
  "_format": "hh-sol-artifact-1",
  "contractName": "Box2",
  "sourceName": "contracts/Box2.sol",
  "abi": [
    {
      "anonymous": false,
      "inputs": [
        {
          "indexed": false,
          "internalType": "uint8",
          "name": "version",
          "type": "uint8"
        }
      ],
      "name": "Initialized",
      "type": "event"
    },
    {
      "inputs": [
        {
          "internalType": "uint256",
          "name": "_x",
          "type": "uint256"
        }
      ],
      "name": "setX",
      "outputs": [],
      "stateMutability": "nonpayable",
      "type": "function"
    },
    {
      "inputs": [
        {
          "internalType": "uint256",
          "name": "_y",
          "type": "uint256"
        }
      ],
      "name": "setY",
      "outputs": [],
      "stateMutability": "nonpayable",
      "type": "function"
    },
    {
      "inputs": [],
      "name": "x",
      "outputs": [
        {
          "internalType": "uint256",
          "name": "",
          "type": "uint256"
        }
      ],
      "stateMutability": "view",
      "type": "function"
    },
    {
      "inputs": [],
      "name": "y",
      "outputs": [
        {
          "internalType": "uint256",
          "name": "",
          "type": "uint256"
        }
      ],
      "stateMutability": "view",
      "type": "function"
    }
  ],
  "bytecode": "0x608060405234801561001057600080fd5b506101ad806100206000396000f3fe608060405234801561001057600080fd5b506004361061004c5760003560e01c80630c55699c146100515780634018d9aa1461006f57806368d466b81461008b578063a56dfe4a146100a7575b600080fd5b6100596100c5565b60405161006691906100fe565b60405180910390f35b6100896004803603810190610084919061014a565b6100cb565b005b6100a560048036038101906100a0919061014a565b6100d5565b005b6100af6100df565b6040516100bc91906100fe565b60405180910390f35b60015481565b8060018190555050565b8060028190555050565b60025481565b6000819050919050565b6100f8816100e5565b82525050565b600060208201905061011360008301846100ef565b92915050565b600080fd5b610127816100e5565b811461013257600080fd5b50565b6000813590506101448161011e565b92915050565b6000602082840312156101605761015f610119565b5b600061016e84828501610135565b9150509291505056fea264697066735822122096106e2a22550ca5dbcdb4de50b499b63f0028d7cb3fe05d1ee5f8c24449bffb64736f6c63430008130033",
  "linkReferences": {},
  "deployedLinkReferences": {}
}